:1000000012C019C018C017C016C015C014C013C044
:1000100012C011C010C00FC00EC00DC00CC00BC06C
:100020000AC009C008C011241FBECFE5D4E0DEBF5E
:10003000CDBF02D024C0E4CF8FEF84BB33E026E0F5
:100040009CE089E035BBEFE3FCE93197F1F700C0B4
:10005000000025BBEFE3FCE93197F1F700C0000099
:1000600095BBEFE3FCE93197F1F700C0000085BBD9
:10007000EFE3FCE93197F1F700C00000E3CFF8941B
:02008000FFCFB0
:00000001FF
