:1000000012C024C023C022C021C020C01FC01EC0F7
:100010001DC01CC01BC01AC019C018C017C016C014
:1000200015C014C013C011241FBECFE5D4E0DEBF3D
:10003000CDBF11E0A0E6B0E0E8EEFBE002C0059025
:100040000D92A633B107D9F759D1CCC5D9CFCF93EB
:10005000DF93EC018ED2CE01A5D28FEF94E3ACE01A
:1000600081509040A040E1F700C00000DF91CF91A7
:10007000089511B88CE080B984E086BF089584EAC1
:1000800086BF06B607FEFDCF81B1887F883039F084
:1000900081B1887F803119F080E690E0D8DF089543
:1000A00084E986BF8FE19EE40197F1F700C000006C
:1000B000089583B984E886BF06B607FEFDCF08958C
:1000C000882339F084EC86BF06B607FEFDCF83B1E6
:1000D000089584E886BFF8CF0F931F93182F062F3B
:1000E000CEDF84EA83B984E886BF06B607FEFDCF7B
:1000F00081B1887F883119F082E790E0A8DF13B9D9
:1001000084E886BF06B607FEFDCF81B1887F8832BE
:1001100019F08AE890E09BDF03B984E886BF06B651
:1001200007FEFDCF81B1887F883219F08AE890E020
:100130008EDFB6DF1F910F910895EF92FF920F931C
:100140001F93CF93DF93182F062FF72E98DF84EAA3
:1001500083B984E886BF06B607FEFDCF81B1887FEC
:10016000883119F082E790E072DF187F13B984E8D4
:1001700086BF06B607FEFDCF81B1887F883219F0B1
:100180008AE890E064DF8F2DE02EE7017E01F82EF3
:10019000E70118E004E8899183B906BF06B607FEB7
:1001A000FDCF81B1887F883219F08AE890E04FDF77
:1001B000115089F775DFDF91CF911F910F91FF905B
:1001C000EF9008951F93182F5ADF84EA83B984E8CB
:1001D00086BF06B607FEFDCF81B1887F883119F052
:1001E00081EA90E034DF13B984E886BF06B607FEE3
:1001F000FDCF81B1887F883219F086EB90E027DF50
:100200003EDF85EA83B984E886BF06B607FEFDCFE8
:1002100081B1887F803419F08AEC90E018DF84E89F
:1002200086BF06B607FEFDCF13B181B1887F883542
:1002300019F08FED90E00BDF33DF812F1F910895D0
:10024000EF92FF920F931F93CF93DF93F82E8B01C2
:1002500016DF84EA83B984E886BF06B607FEFDCFC1
:1002600081B1887F883119F081EA90E0F0DEF3B83F
:1002700084E886BF06B607FEFDCF81B1887F88324D
:1002800019F086EB90E0E3DEFADE85EA83B984E8D4
:1002900086BF06B607FEFDCF81B1887F803419F096
:1002A0008AEC90E0D4DEE80197E0F92E84ECE82EA9
:1002B000E6BE06B607FEFDCF83B1899381B1887F84
:1002C000803519F08AE890E0C2DEFA9489F784E874
:1002D00086BF06B607FEFDCF83B1F801878381B1E3
:1002E000887F883519F08FED90E0B1DED9DEDF919F
:1002F000CF911F910F91FF90EF900895FF920F9370
:100300001F93DF93CF93CDB7DEB767970FB6F894FF
:10031000DEBF0FBECDBF9E012C5F3F4FD901EDE286
:10032000F1E088E001900D928150E1F7AE01445F69
:100330005F4F88E0DA011D928A95E9F78E010F5F21
:100340001F4F83E0F80111928A95E9F78FEF87BB81
:100350008FE02C8B3D8B4E8B5F8B43D111B88CE0A3
:1003600080B984E086BF6EE2B7DE80EF2C893D89DC
:10037000B901E3DE84E026DFF82E00D000D000D003
:10038000EDB7FEB73196ADB7BEB712961C930E937C
:10039000119722EF30E03383228324E030E035836D
:1003A000248351D1EDB7FEB736960FB6F894FEBF51
:1003B0000FBEEDBFDED0C801F5D000D000D000D018
:1003C000EDB7FEB73196ADB7BEB712961C930E933C
:1003D00011972EEF30E033832283F482158233D1DC
:1003E000EDB7FEB736960FB6F894FEBF0FBEEDBF61
:1003F00080E061E0B3D0C801D5D08FEF99E6A8E1E5
:1004000081509040A040E1F700C0000080EF4E898D
:100410005F89BA0115DFADD0AFD0ADB7BEB7549785
:100420000FB6F894BEBF0FBEADBFEDB7FEB73196A5
:1004300012961C930E93119787E091E09383828329
:100440008C85848315828D85868317828E8580872F
:1004500011868F8582871386888984871586898986
:10046000868717868A89808B118A8B89828B138A6B
:10047000EAD0EDB7FEB774960FB6F894FEBF0FBE84
:10048000EDBFC8018FD080E061E068D000D000D01F
:1004900000D0EDB7FEB73196ADB7BEB712961C933C
:1004A0000E9311978FE191E09383828380EF90E028
:1004B00095838483C8D0EDB7FEB736960FB6F8940F
:1004C000FEBF0FBEEDBFC8016DD0FFCF6623C1F4E4
:1004D0009498959891B39F6091BB92B3907F282F89
:1004E00022952F70292B22BB969A00C096988F7068
:1004F000892B82BB969A00C096989F6092BB089504
:10050000949AE7CF9498959A81B3807F81BB969A0D
:1005100000C090B3969800C0969A00C080B39295A0
:10052000907F8F709698892B0895ECDF87FDFDCF23
:1005300084E090E00197F1F7E5DF08951F93182F0D
:10054000F4DF812F60E0C2DF1F9108951F93182F01
:10055000ECDF812F61E0BADF1F910895662319F067
:100560008054ECDF08958058E9DF0895DEDF90E0E5
:10057000089581E0E3DF089582E0E0DF08951F93AE
:10058000182FD3DF1A3029F0812F61E09FDF1F91F0
:100590000895803420F080E8D1DF1F91089580EC29
:1005A000CDDFFBCFCF93DF93EC018881882329F047
:1005B0002196E5DF89918823E1F7DF91CF910895B6
:1005C000CF93DF93EC01FC018491882339F02196CD
:1005D000D6DFFE01219684918823D1F7DF91CF9158
:1005E00008951F93182F81B38F6781BBE0E0FDE76B
:1005F0003197F1F7919A909A969A00C09698E0E018
:10060000F7E23197F1F7969A00C0969820E830E02B
:10061000F9013197F1F7969A00C09698F901319750
:10062000F1F79098969A00C09698F9013197F1F7F2
:1006300088E284DF88E082DF9CDF86E07FDF812F35
:100640007DDF1F910895AEE0B0E0E8E2F3E0A1C2E3
:100650000D891E8986E08C831A8309838FEF9FE7BB
:100660009E838D839E01275E3F4FCE0101966F8949
:10067000788DA90108D0EF81F885E00FF11F108275
:100680002E96E4E0A2C2ACE0B0E0E8E4F3E073C28E
:100690006C011B018A01FC0117821682838181FF94
:1006A000C4C12E010894411C511CF6019381F10133
:1006B00093FD859193FF81911F01882309F4B1C1B6
:1006C000853239F493FD859193FF81911F01853225
:1006D00021F490E0B601C5D1E8CFEE24FF2420E05C
:1006E0002032B0F48B3269F08C3228F4803251F031
:1006F000833271F40BC08D3239F0803349F42160BC
:100700002CC02260246029C0286027C0206125C039
:1007100027FD2CC0382F30533A3098F426FF08C0FC
:100720008E2D880FE82EEE0CEE0CE80EE30E15C0B1
:100730008F2D880FF82EFF0CFF0CF80EF30E2062A1
:100740000CC08E3221F426FD6CC1206406C08C36AC
:1007500011F4206802C0883649F4F10193FD8591B7
:1007600093FF81911F01882309F0BACF982F9554E8
:10077000933018F09052933028F40C5F1F4FFFE332
:10078000F9830DC0833631F0833771F0833509F07A
:100790005CC021C0F801808189830E5F1F4F420138
:1007A00071E0A72EB12C15C062E0662E712C600E90
:1007B000711EF8018080918026FF03C06E2D70E0CD
:1007C00002C06FEF7FEFC4012C8740D15C01830131
:1007D0002C852F7716C052E0652E712C600E711E8D
:1007E000F8018080918026FF03C06E2D70E002C06A
:1007F0006FEF7FEFC4012C871ED15C012C85206830
:10080000830123FD1EC007C080E290E0B6012C8763
:1008100028D1FA942C858F2D90E0A816B906A0F364
:1008200010C0F40127FD859127FF81914F0190E0D1
:10083000B6012C8716D12C85F110FA940894A108E2
:10084000B108A114B10469F7E9C0843611F0893602
:1008500041F527FF08C0F801608171818281938191
:100860000C5F1F4F09C0F80160817181882777FDF7
:100870008095982F0E5F1F4F4FE6B42EB22297FF40
:1008800009C090958095709561957F4F8F4F9F4FD0
:10089000F0E8BF2AA2012AE030E00FD1782E7418C8
:1008A00044C0853731F43FEEB32EB2222AE030E067
:1008B00025C099EFB92EB2228F36C1F0803720F4CF
:1008C000883509F0AEC00DC0803721F0883709F0B7
:1008D000A8C002C020E1B22AB4FE0BC084E0B82A4E
:1008E00008C0B4FE09C0E6E0BE2A06C028E030E039
:1008F00005C020E130E002C020E132E0B7FE08C0D0
:10090000F80160817181828193810C5F1F4F07C064
:10091000F8016081718180E090E00E5F1F4FA201BD
:10092000CCD0782E7418FFE7BF22B6FE0BC02EEF96
:10093000B2227E1438F4B4FE07C0B2FC05C08FEEBC
:10094000B82202C0A72C01C0AE2C8B2D90E0B4FEC3
:100950000DC0FE01E70DF11D2081203319F4E9EEF1
:10096000BE2209C0A394B2FE06C004C0867890706F
:10097000009709F0A3948B2C9924B3FC13C0B0FE0C
:100980000EC0AF1428F4E72CEF0CEA18AF2C07C008
:10099000E72C05C080E290E0B60163D0A394AF14C9
:1009A000C8F304C0AF1410F4FA1801C0FF2484FE89
:1009B0000EC080E390E0B60154D082FE1DC081FEDF
:1009C00003C088E590E010C088E790E00DC0C40146
:1009D00086789070009781F081FC02C080E201C0AF
:1009E0008BE2B7FC8DE290E0B6013BD005C080E31E
:1009F00090E0B60136D0EA947E14C8F37A94F201FE
:100A0000E70DF11D808190E0B6012BD07720B1F782
:100A100005C080E290E0B60124D0FA94FF20C9F727
:100A200044CEF6012681378102C02FEF3FEFC90186
:100A30002C96E2E1BCC0FC010590615070400110B1
:100A4000D8F7809590958E0F9F1F0895FC016150F7
:100A5000704001900110D8F7809590958E0F9F1FE0
:100A600008950F931F93CF93DF938C01EB018B813C
:100A700081FF1BC082FF0DC02E813F818C819D8133
:100A80002817390764F4E881F9810193F983E88331
:100A900006C0E885F985802F0995009731F48E818D
:100AA0009F8101969F838E8302C00FEF1FEFC801C5
:100AB000DF91CF911F910F910895FA01AA27283055
:100AC00051F1203181F1E8946F936E7F6E5F7F4F1B
:100AD0008F4F9F4FAF4FB1E03ED0B4E03CD0670F97
:100AE000781F891F9A1FA11D680F791F8A1F911DEA
:100AF000A11D6A0F711D811D911DA11D20D009F43A
:100B000068943F912AE0269F11243019305D31937B
:100B1000DEF6CF010895462F4770405D4193B3E064
:100B20000FD0C9F7F6CF462F4F70405D4A3318F00B
:100B3000495D31FD4052419302D0A9F7EACFB4E0BC
:100B4000A6959795879577956795BA95C9F7009774
:100B50006105710508959B01AC010A2E0694579515
:100B6000479537952795BA95C9F7620F731F841F6C
:100B7000951FA01D08952F923F924F925F926F9202
:100B80007F928F929F92AF92BF92CF92DF92EF921D
:100B9000FF920F931F93CF93DF93CDB7DEB7CA1B9E
:100BA000DB0B0FB6F894DEBF0FBECDBF09942A88C9
:100BB000398848885F846E847D848C849B84AA8471
:100BC000B984C884DF80EE80FD800C811B81AA81FE
:100BD000B981CE0FD11D0FB6F894DEBF0FBECDBFC9
:080BE000ED010895F894FFCF28
:100BE8004572726F72207768696C652073746172E0
:100BF80074004572726F72207768696C6520534C77
:100C0800412B57207772697465004572726F7220A4
:100C18007768696C652044617461207772697465CE
:100C2800004572726F7220696E20534C412B572019
:100C38007772697465004572726F7220696E20441C
:100C4800617461207772697465004572726F7220F1
:100C5800696E20534C412B522077726974650045A8
:100C680072726F7220696E204461746120526561EE
:100C78006400416464726573733A202564004461BA
:100C880074613A20256400256420256420256420A9
:100C980025642025642025642025642025640041DE
:100CA8006464726573732053743A25640001020307
:060CB80004050607080018
:00000001FF
