:1000000012C019C018C017C016C015C014C013C044
:1000100012C011C010C00FC00EC00DC00CC00BC06C
:100020000AC009C008C011241FBECFE5D4E0DEBF5E
:10003000CDBF30D0EDC0E4CF8CE287BB8DE58DB96C
:1000400008958FB9779BFECF8FB1089588B318BA02
:1000500082E58FB9779BFECF8FB1C29A089588B39E
:1000600018BA84E58FB9779BFECF8FB1C29A0895F5
:1000700088B318BA83E58FB9779BFECF8FB1C29A48
:10008000089588B318BA80E68FB9779BFECF8FB1F9
:10009000C29A0895FFCF6623C1F49498959891B3BE
:1000A0009F6091BB92B3907F282F22952F70292BB0
:1000B00022BB969A00C096988F70892B82BB969A25
:1000C00000C096989F6092BB0895949AE7CF949849
:1000D000959A81B3807F81BB969A00C090B3969821
:1000E00000C0969A00C080B39295907F8F709698CA
:1000F000892B0895ECDF87FDFDCF84E090E0019728
:10010000F1F7E5DF08951F93182FF4DF812F60E0EA
:10011000C2DF1F9108951F93182FECDF812F61E03C
:10012000BADF1F910895662319F08054ECDF08951B
:100130008058E9DF0895DEDF90E0089581E0E3DF95
:10014000089582E0E0DF08951F93182FD3DF1A305F
:1001500029F0812F61E09FDF1F910895803420F006
:1001600080E8D1DF1F91089580ECCDDFFBCFCF93E6
:10017000DF93EC018881882329F02196E5DF8991BE
:100180008823E1F7DF91CF910895CF93DF93EC01BE
:10019000FC018491882339F02196D6DFFE01219657
:1001A00084918823D1F7DF91CF9108951F93182F61
:1001B00081B38F6781BBE0E0FDE73197F1F7919A5A
:1001C000909A969A00C09698E0E0F7E23197F1F79E
:1001D000969A00C0969820E830E0F9013197F1F73F
:1001E000969A00C09698F9013197F1F79098969AEF
:1001F00000C09698F9013197F1F788E284DF88E032
:1002000082DF9CDF86E07FDF812F7DDF1F910895F5
:04021000F894FFCF90
:00000001FF
