:1000000012C019C018C017C016C015C014C013C044
:1000100012C011C010C00FC00EC00DC00CC00BC06C
:100020000AC009C008C011241FBECFE5D4E0DEBF5E
:10003000CDBF6AD073C0E4CF97B18770892B87B9E1
:10004000369A349BFECF349A24B135B1C901089554
:100050000F931F9381E088BB0FEF11E12AE7015056
:1000600010402040E1F700C00000369A349BFECFDC
:10007000349A84B195B122E028BB2FEF31E14AE7F1
:10008000215030404040E1F700C00000369A349BD8
:10009000FECF349A44B155B124E028BB0FEF11E1F3
:1000A0002AE7015010402040E1F700C00000369AD6
:1000B000349BFECF349A24B135B118BA28173907CA
:1000C00018F448175907D0F08217930718F442170D
:1000D0005307B8F08417950728F42417350710F450
:1000E00080E288BB2FEF31E14AE7215030404040A9
:1000F000E1F700C000001F910F91089588E088BBD0
:10010000F1CF80E188BBEECF8FEF87BB18BA86E8CE
:1001100086B981E087B99CDF9BDFFDCFF894FFCFE4
:00000001FF
