:100000000C942A000C9434000C9434000C943400AA
:100010000C9434000C9434000C9434000C94340090
:100020000C9434000C9434000C9434000C94340080
:100030000C9434000C9434000C9434000C94340070
:100040000C9434000C9434000C9434000C94340060
:100050000C94340011241FBECFE5D8E0DEBFCDBF25
:100060000E943A000C9450000C94000080E487BB7E
:100070008DB908958FEF8ABB80E487BB8DB98FEF70
:100080008FB9779BFECF9FB19BBB81502FEF37E895
:1000900043E1215030404040E1F700C00000F0CF84
:0400A000F894FFCF02
:00000001FF
