:1000000012C024C023C022C021C020C01FC01EC0F7
:100010001DC01CC01BC01AC019C018C017C016C014
:1000200015C014C013C011241FBECFE5D4E0DEBF3D
:10003000CDBF10E0A0E6B0E0ECE2F6E002C0059033
:100040000D92A63EB107D9F7C9D1EEC2D9CFCF9351
:10005000DF93EC017FD2CE0196D28FEF99E6A8E133
:1000600081509040A040E1F700C00000DF91CF91A7
:10007000089511B887E480B984E086BF089584EAC2
:1000800086BF06B607FEFDCF81B1887F883039F084
:1000900081B1887F803119F080E690E0D8DF089543
:1000A00084E986BF8FE39CE90197F1F700C0000067
:1000B000089583B984E886BF06B607FEFDCF08958C
:1000C000882339F084EC86BF06B607FEFDCF83B1E6
:1000D000089584E886BFF8CF11B887E480B984E03A
:1000E00086BFCDDF80ED83B984E886BF06B607FE04
:1000F000FDCF81B1887F883119F082E790E0A7DFDA
:1001000087E083B984E886BF06B607FEFDCF81B1DC
:10011000887F883219F08AE890E099DF13B884E884
:1001200086BF06B607FEFDCF81B1887F883219F001
:100130008AE890E08CDFB4DF0895BF92CF92DF921F
:10014000EF92FF920F931F93182FF62ED42EB22EFC
:1001500096DF80ED83B984E886BF06B607FEFDCF43
:1001600081B1887F883119F082E790E070DF13B8A1
:1001700084E886BF06B607FEFDCF81B1887F88324E
:1001800019F08AE890E063DF13B984E886BF06B609
:1001900007FEFDCF81B1887F883219F08AE890E0B0
:1001A00056DFF3B884E886BF06B607FEFDCF81B1FF
:1001B000887F883219F08AE890E049DFD3B884E874
:1001C00086BF06B607FEFDCF81B1887F883219F061
:1001D0008AE890E03CDFB3B884E886BF06B607FE45
:1001E000FDCF81B1887F883219F08AE890E02FDF57
:1001F00003B984E886BF06B607FEFDCF81B1887FCC
:10020000883219F08AE890E022DFE3B884E886BFFC
:1002100006B607FEFDCF81B1887F883219F08AE8E3
:1002200090E015DFC3B884E886BF06B607FEFDCFB1
:1002300081B1887F883219F08AE890E008DF30DFEA
:100240001F910F91FF90EF90DF90CF90BF90089596
:100250004F925F926F927F928F929F92AF92BF92D6
:10026000CF92DF92EF92FF920F931F93CF93DF9382
:100270002C013B014A015901E70101DF80ED83B9FF
:1002800084E886BF06B607FEFDCF81B1887F88313E
:1002900019F082E790E0DBDE13B884E886BF06B68B
:1002A00007FEFDCF81B1887F883219F081EA90E0A6
:1002B000CEDEE5DE81ED83B984E886BF06B607FEB3
:1002C000FDCF81B1887F803419F08BEB90E0BFDEE9
:1002D00084EC86BF06B607FEFDCF83B1F2018083B2
:1002E00081B1887F803519F080ED90E0B0DE84EC3C
:1002F00086BF06B607FEFDCF83B1F301808381B1CF
:10030000887F803519F080ED90E0A1DE84EC86BF17
:1003100006B607FEFDCF83B1F401808381B1887FEB
:10032000803519F080ED90E092DE84EC86BF06B651
:1003300007FEFDCF83B1F501808381B1887F8035D1
:1003400019F080ED90E083DE84EC86BF06B607FEF0
:10035000FDCF83B1F801808381B1887F803519F0AA
:1003600080ED90E074DE84EC86BF06B607FEFDCF1C
:1003700083B1888381B1887F803519F080ED90E06A
:1003800066DE84E886BF06B607FEFDCF83B1F601C0
:10039000808381B1887F883519F080ED90E057DE49
:1003A0007FDEDF91CF911F910F91FF90EF90DF9053
:1003B000CF90BF90AF909F908F907F906F905F9005
:1003C0004F9008951F93182F82958F70805DC8D02D
:1003D000812F8F70805DC4D01F9108952F923F921E
:1003E0005F926F927F928F929F92AF92BF92CF92C5
:1003F000DF92EF92FF920F931F93DF93CF93CDB7CE
:10040000DEB727970FB6F894DEBF0FBECDBF8FEFD4
:1004100087BB8FE0D7D060DE80E365E449E121E06F
:1004200006E255E0E52E32E1C32E87DE25E0A22E5E
:10043000B12CAC0EBD1E96E0892E912C8C0E9D1E0B
:1004400087E0682E712C6C0E7D1E1E010894211C05
:10045000311C5980C101BE016E5F7F4FAE014D5FFF
:100460005F4F9E012C5F3F4F850174016301F0DEF9
:100470008981851579F36ED084E060E060D08B814E
:10048000A1DF8AE36DD08A819DDF8AE369D089810B
:1004900099DF84E061E053D08D8194DF8AE360D0FE
:1004A0008E8190DF8AE35CD08F818CDFD2CF662390
:1004B000C1F49498959891B39F6091BB92B3907F4B
:1004C000282F22952F70292B22BB969A00C0969830
:1004D0008F70892B82BB969A00C096989F6092BBC2
:1004E0000895949AE7CF9498959A81B3807F81BBC1
:1004F000969A00C090B3969800C0969A00C080B3B8
:100500009295907F8F709698892B0895ECDF87FDE8
:10051000FDCF88E090E00197F1F7E5DF08951F93A4
:10052000182FF4DF812F60E0C2DF1F9108951F9321
:10053000182FECDF812F61E0BADF1F910895662349
:1005400019F08054ECDF08958058E9DF0895DEDF6C
:1005500090E0089581E0E3DF089582E0E0DF089510
:100560001F93182FD3DF1A3029F0812F61E09FDF0E
:100570001F910895803420F080E8D1DF1F91089505
:1005800080ECCDDFFBCFCF93DF93EC018881882314
:1005900029F02196E5DF89918823E1F7DF91CF915A
:1005A0000895CF93DF93EC01FC018491882339F007
:1005B0002196D6DFFE01219684918823D1F7DF9121
:1005C000CF9108951F93182F81B38F6781BBE0E00F
:1005D000FAEF3197F1F7919A909A969A00C096980F
:1005E000E0E0FEE43197F1F7969A00C0969820E09B
:1005F00031E0F9013197F1F7969A00C09698F90128
:100600003197F1F79098969A00C09698F901319732
:10061000F1F788E284DF88E082DF9CDF86E07FDF1D
:0C062000812F7DDF1F910895F894FFCF1B
:10062C004572726F72207768696C652073746172A1
:10063C0074004572726F72207768696C6520534C38
:10064C00412B57207772697465004572726F722066
:10065C007768696C65204461746120777269746590
:10066C00004572726F72207768696C652041646412
:10067C0072657373207772697465004572726F725C
:10068C0020696E20534C412B52207772697465009F
:10069C004572726F7220696E2044617461207265BC
:0606AC006369657665003C
:00000001FF
