:1000000012C019C018C017C016C015C014C013C044
:1000100012C011C010C00FC00EC00DC00CC00BC06C
:100020000AC009C008C011241FBECFE5D4E0DEBF5E
:10003000CDBF02D02FC0E4CF8FEF81BB2FEF9AEA64
:1000400085E522BB4FEF53ED60E3415050406040E7
:10005000E1F700C0000092BB4FEF53ED60E3415069
:1000600050406040E1F700C0000082BB4FEF53ED0D
:1000700060E3415050406040E1F700C0000012BA18
:100080004FEF53ED60E3415050406040E1F700C056
:080090000000D7CFF894FFCF68
:00000001FF
