:100000000C942A000C9434000C9434000C943400AA
:100010000C9434000C9434000C9434000C94340090
:100020000C9434000C9434000C9434000C94340080
:100030000C9434000C9434000C9434000C94340070
:100040000C9434000C9434000C9434000C94340060
:100050000C94340011241FBECFE5D8E0DEBFCDBF25
:100060000E943B000C9452000C94000080EB87BB74
:1000700081E58DB908958FEF8ABB80EB87BB81E561
:100080008DB980E08FB9779BFECF9FB19BBB8F5F0F
:100090002FEF37E843E1215030404040E1F700C006
:0800A0000000F0CFF894FFCF3F
:00000001FF
