:1000000012C024C023C022C021C020C01FC01EC0F7
:100010001DC01CC01BC01AC019C018C017C016C014
:1000200015C014C013C011241FBECFE5D4E0DEBF3D
:10003000CDBF11E0A0E6B0E0E8EBF3E002C0059030
:100040000D92A431B107D9F702D0B4C1D9CF87EF4F
:1000500087BB18BA8FE07CD186E886B985E087B97E
:10006000B399FECF3DD180E690E053D180E061E0CE
:100070002CD18BE690E04DD18FEF9BE7A2E9815028
:100080009040A040E1F700C00000369A3699FECFBC
:1000900084B195B18230910508F489C09C01225049
:1000A00030402230310508F48CC09C01245030408F
:1000B0002430310508F46DC09C01285030402830B0
:1000C000310508F46DC09C012051304020313105CC
:1000D00008F458C09C01205230402031310508F40A
:1000E0006BC09C01205330402031310508F46EC0B4
:1000F0009C01205430402A31310508F46CC09C0129
:100100002A5530402632310508F46AC09C01205837
:1001100030402631310508F46DC09C01265930402D
:100120002E31310508F46BC09C01245B30402E3128
:10013000310508F469C09C01225D30402E31310543
:1001400008F467C09C01205F30402832310508F474
:1001500065C09C01285131402E31310508F445C05D
:100160009C01265331402832310508F461C08E5578
:1001700091408233910508F456C0B2D087E091E0F7
:10018000C8D004C0ADD087E990E0C3D080E090E053
:100190000895A6D087E890E0BCD080E090E0089574
:1001A0009FD08FE890E0B5D080E090E0089598D09F
:1001B00087E790E0AED0EACF93D08FE990E0A9D066
:1001C000E5CF8ED08FE790E0A4D0E0CF89D087EA4A
:1001D00090E09FD0DBCF84D08FEA90E09AD0D6CF4A
:1001E0007FD087EB90E095D0D1CF7AD08CEE90E0A5
:1001F00090D0CCCF75D08FEB90E08BD0C7CF70D0A4
:1002000088EC90E086D0C2CF6BD081ED90E081D0B9
:10021000BDCF66D08AED90E07CD0B8CF61D083EEC0
:1002200090E077D0B3CF5CD08EEF90E072D0AECFBD
:1002300057D085EF90E06DD0A9CF6623C1F4949894
:10024000959891B39F6091BB92B3907F282F229590
:100250002F70292B22BB969A00C096988F70892BFD
:1002600082BB969A00C096989F6092BB0895949A1C
:10027000E7CF9498959A81B3807F81BB969A00C00E
:1002800090B3969800C0969A00C080B39295907FE4
:100290008F709698892B0895ECDF87FDFDCF88E05D
:1002A00090E00197F1F7E5DF08951F93182FF4DF31
:1002B000812F60E0C2DF1F9108951F93182FECDF9C
:1002C000812F61E0BADF1F910895662319F08054F1
:1002D000ECDF08958058E9DF0895DEDF90E00895AF
:1002E00081E0E3DF089582E0E0DF08951F93182F97
:1002F000D3DF1A3029F0812F61E09FDF1F9108952D
:10030000803420F080E8D1DF1F91089580ECCDDFAC
:10031000FBCFCF93DF93EC018881882329F02196CE
:10032000E5DF89918823E1F7DF91CF910895CF939D
:10033000DF93EC01FC018491882339F02196D6DF0C
:10034000FE01219684918823D1F7DF91CF91089502
:100350001F93182F81B38F6781BBE0E0FAEF3197CD
:10036000F1F7919A909A969A00C09698E0E0FEE490
:100370003197F1F7969A00C0969820E031E0F901A4
:100380003197F1F7969A00C09698F9013197F1F7F5
:100390009098969A00C09698F9013197F1F788E203
:1003A00084DF88E082DF9CDF86E07FDF812F7DDFD6
:0803B0001F910895F894FFCF9E
:1003B800436865636B696E672E2E00506C656173C8
:1003C8006520576169740036356D672F644C0036B7
:1003D800376D672F644C0036396D672F644C0037D2
:1003E800326D672F644C0037386D672F644C0038C6
:1003F800326D672F644C0038376D672F644C0039B5
:10040800336D672F644C0039396D672F644C0031A8
:1004180030376D672F644C003131386D672F644C6D
:10042800003133356D672F644C003136336D672FDB
:10043800644C003138326D672F644C003230376DB0
:10044800672F644C003233386D672F644C003238A4
:10045800306D672F644C004F7574206F6620726191
:040468006E67650056
:00000001FF
