:1000000012C024C023C022C021C020C01FC01EC0F7
:100010001DC01CC01BC01AC019C018C017C016C014
:1000200015C014C013C011241FBECFE5D4E0DEBF3D
:10003000CDBF11E0A0E6B0E0E6E2FBE002C0059033
:100040000D92A23EB107D9F74FD16BC5D9CF8CE243
:1000500087BB8DE58DB908958FB9779BFECF8FB1A2
:10006000089588B318BA84E98FB9779BFECF8FB112
:100070001FB8779BFECF8FB11FB8779BFECF9FB184
:10008000AFE8B1E01197F1F700C00000C29A87FD18
:1000900017C09BD180E790E0B1D18FEF93EDA0E343
:1000A00081509040A040E1F700C000008FEF99E63A
:1000B000A8E181509040A040E1F700C00000089501
:1000C00084D180E690E09AD18FEF93EDA0E3815048
:1000D0009040A040E1F700C00000E8CF88B318BA14
:1000E00080E98FB9779BFECF8FB11FB8779BFECF8A
:1000F0008FB11FB8779BFECF9FB1A3EFB1E01197EF
:10010000F1F700C00000C29A87FD17C05ED18DE8EC
:1001100090E074D18FEF93EDA0E381509040A04028
:10012000E1F700C000008FEF99E6A8E18150904010
:10013000A040E1F700C00000089547D18CE790E0AF
:100140005DD18FEF93EDA0E381509040A040E1F7A7
:1001500000C00000E8CF88B318BA84E98FB9779B54
:10016000FECF8FB183EF91E00197F1F700C000005F
:10017000C29A88B318BA80E88FB9779BFECF8FB147
:100180001FB8779BFECF2FB11FB8779BFECF8FB1E3
:10019000A3EFB1E01197F1F700C00000C29A27FD6C
:1001A0000FC030E025FF1DC02F7030703695322F04
:1001B0002227379527958695280F311DC901089567
:1001C00004D18AE990E01AD18FEF93EDA0E381503A
:1001D0009040A040E1F700C0000020E030E0C901FD
:1001E0000895FFCF88B318BA8CE98FB9779BFECFFB
:1001F0008FB183EF91E00197F1F700C00000C29A40
:1002000088B318BA80E88FB9779BFECF8FB11FB83B
:10021000779BFECF2FB11FB8779BFECF8FB1A3EF97
:10022000B1E01197F1F700C00000C29A27FD0FC09E
:1002300030E025FF1DC02F7030703695322F2227F9
:10024000379527958695280F311DC9010895BDD092
:1002500086EB90E0D3D08FEF93EDA0E381509040F8
:10026000A040E1F700C0000020E030E0C90108959F
:10027000FFCF9C01880F991F820F931F880F991F32
:10028000880F991F880F991F820F931F6CE070E0F1
:10029000EAD364537840882777FD8095982FA8D1BA
:1002A00024EA30E745ED50E4FAD0FED1CB010895C1
:1002B0009C01880F991F820F931F880F991F880F29
:1002C000991F880F991F820F931F929582958F70A7
:1002D00089279F708927885998406AE070E0D7D3B2
:1002E000675E7F4FCB0108958CE287BB8DE58DB9AA
:1002F0008FEF84BB85BB8FEF93EDA0E381509040DF
:10030000A040E1F700C0000015BA8FEF93EDA0E325
:1003100081509040A040E1F700C000008FE08DD0F8
:1003200081ED90E06BD09DDEFFCF6623C1F4949801
:10033000959891B39F6091BB92B3907F282F22959F
:100340002F70292B22BB969A00C096988F70892B0C
:1003500082BB969A00C096989F6092BB0895949A2B
:10036000E7CF9498959A81B3807F81BB969A00C01D
:1003700090B3969800C0969A00C080B39295907FF3
:100380008F709698892B0895ECDF87FDFDCF00C014
:10039000E8DF08951F93182FF7DF812F60E0C5DF96
:1003A0001F9108951F93182FEFDF812F61E0BDDFAC
:1003B0001F910895662319F08054ECDF089580584A
:1003C000E9DF0895E1DF90E0089581E0E3DF08953B
:1003D00082E0E0DF08951F93182FD6DF1A3029F04E
:1003E000812F61E0A2DF1F910895803420F080E822
:1003F000D1DF1F91089580ECCDDFFBCFCF93DF934A
:10040000EC018881882329F02196E5DF89918823F2
:10041000E1F7DF91CF910895CF93DF93EC01FC01D9
:100420008491882339F02196D6DFFE0121968491AC
:100430008823D1F7DF91CF9108951F93182F81B3AF
:100440008F6781BBE0EAFFE03197F1F7919A909ACC
:10045000969A00C09698E0EEF4E03197F1F7969AFC
:1004600000C0969820E130E0F9013197F1F7969AB3
:1004700000C09698F9013197F1F79098969A00C0CC
:100480009698F9013197F1F788E284DF88E082DFFE
:100490009CDF86E07FDF812F7DDF1F910895A8E13B
:1004A000B0E0E4E5F2E00EC369837A838B839C833A
:1004B0002D833E834F8358878E01075F1F4FCE01E8
:1004C0000196B80167D281E1E82EF12CEC0EFD1EF9
:1004D000CE010596B7015ED29985923008F483C0AB
:1004E0008989823008F47BC02A853A8923272A87A4
:1004F000943011F0923021F4981709F06CC071C05B
:10050000843039F41D861E861F86188A1C861B8639
:100510006AC0823019F484E0898765C08B859C8528
:100520002B893C89821B930B9C878B872D853E856D
:100530004F855889ED88FE880F89188D2E153F0547
:100540004007510738F4220F331F441F551F0197EE
:100550009C878B876FE170E0A12CB12CC12CA0E4AB
:10056000DA2E80E090E0DC012E153F0540075107B0
:1005700040F08A299B29AC29BD292E193F09400B3F
:10058000510BD694C794B794A794220F331F441FDE
:10059000551F6150704041F76FE7E62EF12C012D99
:1005A000112DE822F9220A231B2360E4E616F10448
:1005B0000105110561F487FD0AC0211531054105CA
:1005C000510529F0805C9F4FAF4FBF4F80788D87DA
:1005D0009E87AF87B88B8E01075F1F4F04C08701CE
:1005E00002C009ED10E0C80108D16896EAE086C2B1
:1005F000A8E0B0E0EDEFF2E069C27B018C0183E09E
:100600008983D801C7018827B7FD83959927AA2731
:10061000BB27282F8A83E114F1040105110519F481
:1006200082E0898336C08EE190E09C838B83222315
:1006300089F080E0E81680E0F80680E0080780E8AE
:10064000180759F110950095F094E094E11CF11C05
:10065000011D111DED82FE820F831887C801B701AD
:1006600072D09C01215030401216130694F4022ED1
:1006700004C0EE0CFF1C001F111F0A94D2F7ED827C
:10068000FE820F8318878EE190E0821B930B9C8380
:100690008B83CE010196B1D004C060E070E080E0B1
:1006A0009FEC2896E6E02EC2ACE0B0E0E9E5F3E08E
:1006B00011C269837A838B839C83CE010196BE012C
:1006C0006B5F7F4F67D18D81823081F1823070F115
:1006D000843021F48E81882369F10AC02F81388506
:1006E00037FD24C06E812F3131053CF0662311F1B6
:1006F00020E030E040E050E821C08EE190E0821B35
:10070000930B29853A854B855C8504C056954795A2
:10071000379527958A95D2F7662381F050954095B5
:10072000309521953F4F4F4F5F4F08C020E030E09C
:10073000A90104C02FEF3FEF4FEF5FE7B901CA01F6
:100740002C96E2E0E3C1AF92BF92CF92DF92EF929C
:10075000FF920F931F937B018C0180E0E81680E0ED
:10076000F80681E0080780E0180758F4EFEFEE166E
:10077000F1040105110509F090F480E090E0DC013E
:1007800017C0F0E0EF16F0E0FF06F0E00F07F1E031
:100790001F0750F480E190E0A0E0B0E009C088E0DD
:1007A00090E0A0E0B0E004C088E190E0A0E0B0E01C
:1007B00020E230E040E050E0281B390B4A0B5B0B95
:1007C0005701680104C0D694C794B794A7948A953A
:1007D000D2F7D601C5018F519F4FFC018081281BA4
:1007E000310941095109C9011F910F91FF90EF9003
:1007F000DF90CF90BF90AF900895EF92FF920F934C
:100800001F93CF93DF93FC0124813581468157816B
:1008100061818081823020F44061EFEFF0E0A3C07D
:10082000843009F49BC0823009F492C0211531054F
:100830004105510509F48FC00280F381E02D8FEF4F
:10084000E238F8070CF05AC0C2E8DFEFCE1BDF0B2E
:10085000CA31D1056CF579018A010C2E04C01695B8
:100860000795F794E7940A94D2F781E090E0A0E02E
:10087000B0E00C2E04C0880F991FAA1FBB1F0A945A
:10088000D2F70197A109B10982239323A423B523A9
:1008900021E030E040E050E00097A105B10519F4F7
:1008A00020E030E0A9012E293F29402B512B03C025
:1008B00020E030E0A901DA01C9018F779070A070C3
:1008C000B07080349105A105B10539F427FF09C046
:1008D000205C3F4F4F4F5F4F04C0215C3F4F4F4F55
:1008E0005F4FE1E0F0E0203080E0380780E048072B
:1008F00080E4580728F5E0E0F0E022C0E038F10598
:100900006CF5E158FF4FDA01C9018F779070A07044
:10091000B07080349105A105B10539F427FF09C0F5
:10092000205C3F4F4F4F5F4F04C0215C3F4F4F4F04
:100930005F4F57FF05C056954795379527953196D8
:1009400087E056954795379527958A95D1F70BC03F
:10095000E0E0F0E005C0E0E0F0E005C0EFEFF0E03F
:1009600020E030E0A9018E2F879588278795942F66
:100970009F77679566276795E695E22EA92FA82BA6
:10098000FE2FF62B622F732F8A2F9F2FCDB7DEB746
:10099000E6E0B8C0DC01FB012C9111963C91119767
:1009A00012968C911297482F4F7750E0982F991FED
:1009B0009927991F13966C911397862F880F892B6F
:1009C00090E0661F6627661F6183009739F5211541
:1009D00031054105510511F482E029C082E89FEFFD
:1009E0009383828367E0220F331F441F551F6A954C
:1009F000D1F783E0808309C0220F331F441F551FA6
:100A000082819381019793838283203080E038072D
:100A100080E0480780E4580778F320C08F3F9105B5
:100A200079F4211531054105510519F484E08083DD
:100A3000089544FF03C081E0808310C010820EC07F
:100A40008F5790409383828383E0808387E0220FD7
:100A5000331F441F551F8A95D1F750642483358373
:100A6000468357830895AA1BBB1B51E107C0AA1FE9
:100A7000BB1FA617B70710F0A61BB70B881F991F3F
:100A80005A95A9F780959095BC01CD01089597FBE3
:100A9000092E07260AD077FD04D0E5DF06D0002016
:100AA0001AF4709561957F4F0895F6F790958195AA
:100AB0009F4F08952F923F924F925F926F927F9235
:100AC0008F929F92AF92BF92CF92DF92EF92FF925E
:100AD0000F931F93CF93DF93CDB7DEB7CA1BDB0B0A
:100AE0000FB6F894DEBF0FBECDBF09942A883988AF
:100AF00048885F846E847D848C849B84AA84B984B6
:100B0000C884DF80EE80FD800C811B81AA81B981C1
:100B1000CE0FD11D0FB6F894DEBF0FBECDBFED01D5
:060B20000895F894FFCFD8
:100B2600414443206E6F7420456E61626C656400BB
:100B360041444320456E61626C6564004144432034
:100B46006E6F7420696E20536C6565700041444376
:100B560020696E20536C65657000416E67756C6127
:100B6600722052617465206E6F742043616C6375E8
:100B76006C617465640054656D706572617475723C
:100B860065206E6F742043616C63756C6174656477
:100B96000057454C434F4D45000000000000000043
:100BA6000000010202030303030404040404040412
:100BB60004050505050505050505050505050505E0
:100BC60005060606060606060606060606060606C0
:100BD60006060606060606060606060606060606AF
:100BE6000607070707070707070707070707070790
:100BF600070707070707070707070707070707077F
:100C0600070707070707070707070707070707076E
:100C1600070707070707070707070707070707075E
:100C2600070808080808080808080808080808083F
:100C3600080808080808080808080808080808082E
:100C4600080808080808080808080808080808081E
:100C5600080808080808080808080808080808080E
:100C660008080808080808080808080808080808FE
:100C760008080808080808080808080808080808EE
:100C860008080808080808080808080808080808DE
:100C960008080808080808080808080808080808CE
:020CA600080044
:00000001FF
