:100000000C942A000C9434000C9434000C943400AA
:100010000C9434000C9434000C9434000C94340090
:100020000C9434000C94A3000C9434000C947800CD
:100030000C9434000C9434000C9434000C94340070
:100040000C9434000C9434000C9434000C94340060
:100050000C94340011241FBECFE5D8E0DEBFCDBF25
:100060000E9436000C94D3000C940000DF93CF93D1
:10007000CDB7DEB787E390E027E330E0F9012081D8
:100080002268FC01208384E390E0FC01108281E37C
:1000900090E02FEFFC01208382E590E020E6FC0158
:1000A000208383E590E021E0FC0120838DE490E053
:1000B0002DEFFC0120838CE490E020E8FC012083FC
:1000C0008FE490E0FC0110828EE490E021E0FC01DE
:1000D000208389E590E025E0FC012083789482E389
:1000E00090E023E330E0F9012081FC012083F7CF89
:1000F0001F920F920FB60F9211242F933F938F935D
:100100009F93EF93FF93DF93CF93CDB7DEB782E555
:1001100090E020E6FC01208388E390E028E330E0D3
:10012000F901308121E02327FC012083CF91DF9169
:10013000FF91EF919F918F913F912F910F900FBE63
:100140000F901F9018951F920F920FB60F921124C7
:100150002F933F938F939F93EF93FF93DF93CF93CF
:10016000CDB7DEB78DE490E02DEFFC0120838CE469
:1001700090E020E8FC01208388E390E028E330E071
:10018000F901308120E82327FC012083CF91DF9102
:10019000FF91EF919F918F913F912F910F900FBE03
:0A01A0000F901F901895F894FFCF00
:00000001FF
