:1000000012C019C018C017C016C015C014C013C044
:1000100012C011C010C00FC00EC00DC00CC00BC06C
:100020000AC009C008C011241FBECFE5D4E0DEBF5E
:10003000CDBF12D04AC0E4CF10BC83E389B988E1B8
:100040008AB986E880BD08955D9BFECF8CB908957E
:100050005F9BFECF8CB108958FEF87BB10BC83E30D
:1000600089B988E18AB986E880BDE2E09AE038E0A3
:1000700025E05F9BFECF8CB15D9BFECF8CB98636B1
:10008000A1F08236A1F08C36A1F0823721F08337BF
:1000900081F718BAEECFE8BB4FEF59E668E141505F
:1000A00050406040E1F700C0000098BBE2CF28BBA1
:1000B000E0CF38BB4FEF59E668E141505040604017
:0E00C000E1F700C0000098BBD4CFF894FFCF4A
:00000001FF
