:1000000012C02CC082C02AC029C028C067C026C028
:1000100025C024C023C022C021C020C01FC01EC0D4
:100020001DC01CC01BC011241FBECFE5D4E0DEBF25
:10003000CDBF11E0A0E6B0E0E8EAFAE002C005902A
:100040000D92A236B107D9F711E0A2E6B1E001C0E6
:100050001D92A937B107E1F70DD024C5D1CF90BDCE
:1000600089B988E08AB98EE880BD08955D9BFECF8E
:100070008CB908950DD010BC83E389B988E08AB9A2
:100080008EE880BD81E0F1D15D9BFECF8CB9FACFC7
:100090001092660110926701109268011092690136
:1000A000109278011092770110926A011092640107
:1000B000109262018EB589608EBD89B7806189BF5B
:1000C00080E590E09BBD8ABD85B7886085BF8BB712
:1000D00080688BBF8FB780688FBF08951F920F9283
:1000E0000FB60F9211248F939F938091740190917A
:1000F0007501019690937501809374019F918F9182
:100100000F900FBE0F901F9018951F920F920FB671
:100110000F921124DF92EF92FF920F931F932F9370
:100120003F934F935F936F937F938F939F93AF937F
:10013000BF93CF93DF93EF93FF938BB78F778BBFF3
:1001400078948091770190917801892BE1F4C091A6
:100150007401D0917501109275011092740112BE54
:10016000D0906A0181E0D81609F445C0D81618F17C
:1001700083E0D81609F4DCC084E0D81609F49EC0E8
:100180008BB780688BBFFF91EF91DF91CF91BF91CB
:10019000AF919F918F917F916F915F914F913F911F
:1001A0002F911F910F91FF90EF90DF900F900FBE56
:1001B0000F901F90189580916401882309F403C162
:1001C000BE0180E090E0CDD17B018C0120E030E8E1
:1001D0004AE454E470D118160CF05DC020E030E819
:1001E00047E754E4C801B70191D187FF54C081E0CB
:1001F00080936A015AC0BE0180E090E0B2D17B01D9
:100200008C0120E030E84AEC53E455D11816B4F4E0
:1002100020E030E847EF53E4C801B70177D18823E5
:100220006CF483E080936A0110926501109263017F
:1002300085B78C6085BFD0926401A2CFC95CD040E5
:10024000AC9748F580916201882309F4C3C080917E
:100250006100873009F4CCC080916100209160007A
:1002600090E0019630E08217930709F4C6C08091B0
:100270006100873009F4E0C0809161008F5F809356
:100280006100E0916100F0E080916B01E459FE4F64
:100290008083809160001092660110926701109235
:1002A00068011092690110926A0185B7837F85BF4A
:1002B00085B7886085BF1092640162CF8091640128
:1002C000882309F45DCF9091680180916901809540
:1002D000981709F055CF80916100873009F49AC0D2
:1002E000809161002091600090E0019630E08217DB
:1002F000930709F494C080916100873009F49FC08E
:10030000809161008F5F80936100E0916100F0E077
:1003100080916801E459FE4F808380916801809349
:100320006B01809160001092620110927601B3CF50
:1003300080916401882329F0E397629708F0ABCF9E
:10034000B4CFCE018A97409740F1BE0180E090E0A3
:1003500008D17B018C012AE939E148E153E4ABD0B3
:1003600018160CF098CF26E636EE49E353E4C801A0
:10037000B701CCD087FF8FCFE0916301F0E0EA595D
:10038000FE4F20813091650181E090E002C0880F2E
:10039000991F3A95E2F7282B2083809165018F5FA2
:1003A0008093650180916501883069F41092650140
:1003B000809163018F5F809363018091630184303A
:1003C00011F480936A0185B78C6085BF81E08093CA
:1003D0006401D6CE809176018F5F80937601809103
:1003E0007601843009F057CF81E08093620153CFCA
:1003F00080916000882309F02FCF809160008F5F8B
:100400008093600080916000883009F030CF1092B6
:1004100060002DCF80916000882309F061CF80912A
:1004200060008F5F8093600080916000883009F0E9
:1004300062CF109260005FCF1092610022CF1092C5
:10044000610063CF109266011092670110926801FB
:100450001092690110926A0185B7837F85BF85B7C5
:10046000886085BF10926401089580916000E091DA
:100470006000F0E0E459FE4FE081909160008091CF
:100480006100981759F080916000873081F0809169
:1004900060008F5F809360008E2F08958FEF8093B0
:1004A000610080916100809360008E2F089510920A
:1004B00060008E2F0895A8E1B0E0E0E6F2E0C7C248
:1004C00069837A838B839C832D833E834F835887F4
:1004D00089E0E82EF12CEC0EFD1EB701CE0101964D
:1004E000D9D18E010F5E1F4FB801CE010596D2D132
:1004F0008985823038F08989823020F0B801C701BF
:1005000041D201C08FEF6896E6E0BDC2A8E1B0E03D
:10051000EBE8F2E09CC269837A838B839C832D8312
:100520003E834F83588789E0E82EF12CEC0EFD1EA8
:10053000B701CE010196AED18E010F5E1F4FB801FB
:10054000CE010596A7D18985823038F0898982301D
:1005500020F0B801C70116D201C081E06896E6E03C
:1005600092C2A8E0B0E0E6EBF2E06FC27B018C0142
:10057000611571058105910519F482E089835FC0D9
:1005800083E089838EE1C82ED12CDC82CB82ED8280
:10059000FE820F831887C801B70158D0BC01615093
:1005A000704077FF39C0EE27FF27E61BF70B20E0EE
:1005B00030E040E050E081E090E0A0E0B0E00E2EBE
:1005C00004C0880F991FAA1FBB1F0A94D2F7019776
:1005D000A109B1098E219F21A023B1230097A10574
:1005E000B10521F021E030E040E050E004C0169574
:1005F0000795F794E794EA95D2F72E293F29402BE7
:10060000512B2D833E834F8358878EE190E0861BCC
:10061000970B9C838B8313C06115710581F0062EA7
:1006200004C0EE0CFF1C001F111F0A94D2F7ED82CC
:10063000FE820F831887C61AD70ADC82CB821A8201
:10064000CE01019652D02896E8E01BC2EF92FF92AD
:100650000F931F937B018C0180E0E81680E0F80681
:1006600081E0080780E0180788F48FEFE816F104AE
:100670000105110531F028F088E090E0A0E0B0E03D
:1006800017C080E090E0A0E0B0E012C080E0E81683
:1006900080E0F80680E0080781E0180728F088E18C
:1006A00090E0A0E0B0E004C080E190E0A0E0B0E025
:1006B00020E230E040E050E0281B390B4A0B5B0B96
:1006C00004C016950795F794E7948A95D2F7F70139
:1006D000EE59FF4F8081281B310941095109C90199
:1006E0001F910F91FF90EF900895DF92EF92FF928C
:1006F0000F931F93FC01E480F58006811781D18060
:100700008081823048F480E090E0A0E1B0E0E82A07
:10071000F92A0A2B1B2BA5C0843009F49FC0823014
:1007200021F4EE24FF24870105C0E114F104010542
:10073000110519F4E0E0F0E096C0628173819FEF4B
:10074000623879070CF05BC022E83FEF261B370BBD
:100750002A3131052CF020E030E040E050E02AC0A2
:10076000B801A701022E04C0769567955795479565
:100770000A94D2F781E090E0A0E0B0E004C0880FD6
:10078000991FAA1FBB1F2A95D2F70197A109B1098A
:100790008E219F21A023B1230097A105B10521F04F
:1007A00081E090E0A0E0B0E09A01AB01282B392B6A
:1007B0004A2B5B2BDA01C9018F779070A070B07063
:1007C00080349105A105B10539F427FF09C0205CEB
:1007D0003F4F4F4F5F4F04C0215C3F4F4F4F5F4F24
:1007E000E0E0F0E02030A0E03A07A0E04A07A0E413
:1007F0005A0710F0E1E0F0E079018A0127C0603883
:10080000710564F5FB01E158FF4FD801C7018F77EF
:100810009070A070B07080349105A105B10539F4D5
:10082000E7FE0DC080E490E0A0E0B0E004C08FE3FC
:1008300090E0A0E0B0E0E80EF91E0A1F1B1F17FFB2
:1008400005C016950795F794E794319687E01695BD
:100850000795F794E7948A95D1F705C0EE24FF2415
:100860008701EFEFF0E06E2F679566276795902F71
:100870009F77D794DD24D7948E2F8695492F462BCA
:10088000582F5D29B701CA011F910F91FF90EF907A
:10089000DF900895FC01DB01408151812281622FAC
:1008A0006F7770E0221F2227221F9381892F880FE4
:1008B000822B282F30E0991F9927991F11969C931E
:1008C000119721153105A9F54115510561057105EE
:1008D00011F482E037C082E89FEF13969C938E93C9
:1008E00012979A01AB0167E0220F331F441F551F77
:1008F0006A95D1F783E08C930DC0220F331F441FFC
:10090000551F12968D919C911397019713969C9366
:100910008E931297203080E0380780E0480780E40B
:10092000580758F314962D933D934D935C93179766
:1009300008952F3F310579F4411551056105710581
:1009400019F484E08C93089564FF03C081E08C93D4
:1009500012C01C9210C02F57304013963C932E9318
:10096000129783E08C9387E0440F551F661F771F13
:100970008A95D1F7706414964D935D936D937C9333
:10098000179708951F93DC01FB019C91923008F4A6
:1009900047C08081823008F443C0943051F41196EE
:1009A0001C91843099F58181682F70E0611B710979
:1009B0003FC0843021F0923031F48230B9F181812E
:1009C000882389F12DC011961C9111978230F1F086
:1009D00081811817D9F412962D913C911397828139
:1009E00093818217930794F028173907BCF0149667
:1009F0008D919D910D90BC91A02D248135814681D2
:100A00005781281739074A075B0718F4112341F06B
:100A10000AC082179307A407B50740F4112319F001
:100A200061E070E005C06FEF7FEF02C060E070E052
:100A3000CB011F9108952F923F924F925F926F9238
:100A40007F928F929F92AF92BF92CF92DF92EF925E
:100A5000FF920F931F93CF93DF93CDB7DEB7CA1BDF
:100A6000DB0B0FB6F894DEBF0FBECDBF09942A880A
:100A7000398848885F846E847D848C849B84AA84B2
:100A8000B984C884DF80EE80FD800C811B81AA813F
:100A9000B981CE0FD11D0FB6F894DEBF0FBECDBF0A
:080AA000ED010895F894FFCF69
:100AA800FFFF000102020303030304040404040417
:100AB80004040505050505050505050505050505E0
:100AC80005050606060606060606060606060606C0
:100AD80006060606060606060606060606060606AE
:100AE8000606070707070707070707070707070790
:100AF800070707070707070707070707070707077E
:100B0800070707070707070707070707070707076D
:100B1800070707070707070707070707070707075D
:100B2800070708080808080808080808080808083F
:100B3800080808080808080808080808080808082D
:100B4800080808080808080808080808080808081D
:100B5800080808080808080808080808080808080D
:100B680008080808080808080808080808080808FD
:100B780008080808080808080808080808080808ED
:100B880008080808080808080808080808080808DD
:100B980008080808080808080808080808080808CD
:020BA80008083B
:00000001FF
