:100000000C942A000C9434000C9434000C943400AA
:100010000C9434000C9434000C9434000C94340090
:100020000C9434000C9434000C9434000C94340080
:100030000C9434000C9434000C9434000C94340070
:100040000C9434000C9434000C9434000C94340060
:100050000C94340011241FBECFE5D4E0DEBFCDBF29
:100060000E9484000C94EB000C940000DF93CF936B
:1000700000D000D0CDB7DEB79A8389837C836B83B1
:1000800089819A8185369105F0F48B819C81853632
:100090009105C8F42AE430E086E490E0DC01ED91BB
:1000A000FC9189819A8144E650E0BA010E94D70010
:1000B000AB01E49FC001E59F900DF49F900D1124CA
:1000C000F9019183808328E430E086E490E0DC014C
:1000D000ED91FC9111978B819C8144E650E0BA012F
:1000E0000E94D700AB01E49FC001E59F900DF49FF3
:1000F000900D1124F901918380830F900F900F9040
:100100000F90CF91DF910895DF93CF93CDB7DEB7F6
:1001100086E490E020E533ECFC01318320838FE41A
:1001200090E022EAFC0120838EE490E022E1FC01D1
:10013000208381E390E021E330E0F9012081206118
:10014000FC01208381E390E021E330E0F90120818C
:100150002062FC0120838AE490E026E430E0F9018B
:100160002081318136952795FC013183208388E4F5
:1001700090E026E430E0F901208131813695279521
:10018000FC013183208387E390E02FE0FC01208392
:100190008AE390E02FEFFC0120838BE390E0FC01E9
:1001A000108288E390E02AE0FC012083FFCFAA1BA5
:1001B000BB1B51E107C0AA1FBB1FA617B70710F052
:1001C000A61BB70B881F991F5A95A9F78095909584
:0A01D000BC01CD010895F894FFCFA3
:00000001FF
