:100000000C942A000C943F000C943F000C943F0089
:100010000C943F000C943F000C943F000C943F0064
:100020000C943F000C943F000C943F000C943F0054
:100030000C943F000C943F000C943F000C943F0044
:100040000C943F000C943F000C943F000C943F0034
:100050000C943F0011241FBECFE5D8E0DEBFCDBF1A
:1000600010E0A0E6B0E0E4E1F6E002C005900D92F9
:10007000A437B107D9F70E94B3000C9408030C947D
:100080000000DF93CF93CDB7DEB781E290E0FC01B3
:10009000108280E290E027E4FC01208386E590E076
:1000A00024E0FC012083CF91DF910895DF93CF936B
:1000B000CDB7DEB786E590E024EAFC01208300009E
:1000C00086E590E0FC0180818823D4F7CF91DF9111
:1000D0000895DF93CF93CDB7DEB786E590E024E9AE
:1000E000FC012083CF91DF910895DF93CF930F928E
:1000F000CDB7DEB7898383E290E02981FC012083BC
:1001000086E590E024E8FC012083000086E590E08D
:10011000FC0180818823D4F70F90CF91DF9108955F
:10012000DF93CF930F92CDB7DEB789838981882380
:1001300031F086E590E024ECFC01208306C086E5E2
:1001400090E024E8FC012083000086E590E0FC01BB
:1001500080818823D4F783E290E0FC0180810F90B6
:10016000CF91DF910895DF93CF930F92CDB7DEB794
:1001700019828FE00E94B0020E94430280E690E064
:100180000E9466020E9441000E94560088E40E947C
:10019000750089ED0E94750080E00E9490008983BF
:1001A0000E946900FFCFDF93CF9300D0CDB7DEB7B9
:1001B0009A83898389819A81009711F400C006C0CF
:1001C00089819A810197F1F79A8389830F900F9023
:1001D000CF91DF910895DF93CF93CDB7DEB782E360
:1001E00090E022E330E0F90120812064FC012083CB
:1001F00000C082E390E022E330E0F90120812F7B10
:10020000FC012083CF91DF910895DF93CF9300D03D
:100210000F92CDB7DEB78A836B838B81882351F031
:1002200082E390E022E330E0F90120812061FC01CB
:10023000208309C082E390E022E330E0F9012081CD
:100240002F7EFC01208382E390E022E330E0F9017D
:1002500020812F7DFC01208381E390E021E330E0C9
:10026000F90120812F60FC01208382E390E0FC01F2
:100270008081807F898382E390E02A8122952F709C
:10028000322F2981232BFC0120830E94EB0082E383
:1002900090E02A81322F3F702981232BFC0120839B
:1002A0000E94EB0082E390E029812F60FC01208313
:1002B0000F900F900F90CF91DF910895DF93CF9320
:1002C00000D0CDB7DEB78A838A81882351F082E3DC
:1002D00090E022E330E0F90120812061FC012083DD
:1002E00009C082E390E022E330E0F90120812F7E13
:1002F000FC01208382E390E022E330E0F9012081D9
:100300002062FC01208381E390E021E330E0F901E9
:100310002081207FFC01208382E390E022E330E013
:10032000F90120812064FC01208300C080E390E07B
:10033000FC0180818295807F898382E390E022E3C3
:1003400030E0F90120812F7BFC01208300C082E393
:1003500090E022E330E0F90120812064FC01208359
:1003600000C080E390E0FC018081982F9F7089811C
:10037000892B898382E390E022E330E0F901208138
:100380002F7BFC01208389810F900F90CF91DF910B
:1003900008951F93DF93CF93CDB7DEB780E00E941F
:1003A0005E01182F812F8823CCF384E090E00E9417
:1003B000D30080E00E945E01CF91DF911F910895EC
:1003C0001F93DF93CF930F92CDB7DEB789838981D7
:1003D000803410F410E401C010E0812F80580E9496
:1003E000F6010F90CF91DF911F910895DF93CF9386
:1003F0000F92CDB7DEB789830E94C901898160E081
:100400000E9405010F90CF91DF910895DF93CF9364
:100410000F92CDB7DEB789830E94C901898161E05F
:100420000E9405010F90CF91DF910895DF93CF9344
:1004300000D0CDB7DEB789836A838A81882329F407
:10044000898180580E94F60104C0898180540E94ED
:10045000F6010F900F90CF91DF910895DF93CF9326
:10046000CDB7DEB70E94C901882F90E0CF91DF9110
:100470000895DF93CF93CDB7DEB781E00E94F601F8
:10048000CF91DF910895DF93CF93CDB7DEB782E0B0
:100490000E94F601CF91DF910895DF93CF9300D0B2
:1004A000CDB7DEB78A830E94C90189838A818A30E9
:1004B00021F489810E94E00104C08A8161E00E94E8
:1004C00005010F900F90CF91DF9108951F93DF9357
:1004D000CF9300D0CDB7DEB79A83898303C0812F35
:1004E0000E944D0289819A81FC01108121E0112333
:1004F00009F420E089819A8101969A8389832223D5
:1005000071F70F900F90CF91DF911F9108951F9376
:10051000DF93CF9300D000D00F92CDB7DEB79D838D
:100520008C8303C0812F0E944D028C819D819A8310
:1005300089838C819D8101969D838C8389819A8199
:10054000FC0114911B838B81182F112359F70F90F5
:100550000F900F900F900F90CF91DF911F91089502
:10056000DF93CF930F92CDB7DEB7898381E390E01D
:1005700021E330E0F90120812F67FC01208380E036
:100580009DE70E94D30082E390E022E330E0F9018E
:1005900020812260FC01208382E390E022E330E0AE
:1005A000F90120812160FC0120830E94EB0080E0A2
:1005B00097E20E94D3000E94EB0080E890E00E9446
:1005C000D3000E94EB0080E890E00E94D30082E319
:1005D00090E022E330E0F90120812E7FFC012083AE
:1005E0000E94EB0080E890E00E94D30088E20E9425
:1005F000F60188E00E94F6010E94390286E00E941E
:10060000F60189810E94F6010F90CF91DF91089544
:04061000F894FFCF8C
:1006140044533133303720496E74657266616369BF
:040624006E670000FD
:00000001FF
